:020000040800F2
:10000000A8440020292200083D2100083F210008C3
:10001000412100084321000845210008000000009C
:100020000000000000000000000000004721000860
:1000300049210008000000004B2100084D21000864
:100040004D220008512200085522000859220008BC
:100050005D2200086122000865220008692200086C
:100060006D2200087122000875220008792200081C
:100070007D220008812200088522000889220008CC
:100080008D2200089122000895220008992200087C
:100090009D220008A1220008A5220008A92200082C
:1000A000AD220008B1220008B5220008B9220008DC
:1000B000BD2200080000000000000000C12200086E
:1000C000C52200080000000000000000C92200084E
:1000D00000000000CD2200085B21000800000000A5
:1000E000D1220008D5220008000000000000000016
:1000F0000000000000000000000000000000000000
:10010000000000000000000000000000D9220008EC
:100110000000000000000000DD220008E1220008CD
:10012000E5220008E9220008ED220008F12200087B
:10013000F5220008000000000000000000000000A0
:10014000F9220008FD220008012300080523000809
:10015000092300080D2300081123000815230008B7
:10016000192300081D2300082123000800000000B7
:1001700025230008292300080000000000000000DB
:100180002D230008312300083523000838B504006A
:1001900009D004F17005697809B900F028F800F079
:1001A0000DF8012801D1012032BD606A08B100F0CC
:1001B00023F800F014F821F02A0109E024216970E5
:1001C00020680268520852000260204600F06EB9B2
:1001D000816000F014F8BDE8324000F0F8BA206801
:1001E000416821F490414160206881687047002097
:1001F0002870204600F0DABB204600F085BA20685F
:10020000016841F001010160204670472DE9FC477B
:10021000074607F170058A466878202814469846F4
:1002200040D1BAF1000F14BF002C01203BD0287838
:10023000012837D0012129700020686021226A70CE
:1002400007F1500600F044FC34808146748014E0CD
:1002500039681AF8010B08850CE0B868B0F5805FC2
:1002600004BF38690028F3D13AF8021B3868C1F39B
:10027000080101857088411E71804B467088CDF859
:100280000080002811D000228021384600F0CCFAEE
:100290000028E2D0032006E02020687000212970A9
:1002A000002000E00220BDE8F68700224021384609
:1002B00000F0BAFA0028EFD0ECE730B500F15803AF
:1002C0009C7E202C44D109B1140001D1012030BD05
:1002D0001C7E012C3CD001251D7641651A805A8078
:1002E00000219960FF228168B1F5805F04D1016926
:1002F00069B940F2FF120AE019B9016939B17F21E9
:1003000008E0B1F1805F06D1016911B97F229A80BE
:1003100001E03F2199800022DA612221997601686B
:100320008A6842F001028A608168B1F5805F04BF8B
:100330000169002907BFDFF898239A60DFF894135A
:10034000996000221A760068016841F4907101E01A
:10035000022030BD0160002030BD70B50446256824
:10036000E9692A68AB6811F00F000AD188066DD5DB
:1003700096066BD5216E002967D02046BDE87040F7
:100380000847D80702D412F4907F5FD0C80707D57A
:10039000D60505D501202862656F45F00105656722
:1003A000880708D5DD0706D5266802203062606F11
:1003B00040F004006067480708D5DD0706D52668C9
:1003C00004203062606F40F00200606708070AD5C1
:1003D000950601D4D80706D5256808232B62606FDF
:1003E00040F008006067606F002857D0880605D588
:1003F000910603D5216E09B120468847606F010739
:1004000003D42068816848061AD5204600F03EFAD9
:10041000206881684A060ED500F041F858B10FF205
:100420008D418163E06E00F059FBB8B3E06E816BE3
:10043000BDE8704008472046BDE8704000F073BB3F
:10044000204600F070FB0020606770BDC80209D52F
:100450005B0207D54FF4801028622046BDE870404B
:1004600000F062BB080607D5130605D5616EA9B179
:100470002046BDE87040084748060FD551060DD507
:10048000286820F040002860202184F871100020A6
:1004900060662046BDE8704000F047BB70BD8168D3
:1004A00021F040018160E06E704700002DE9F041CD
:1004B000044689482268DFF824E21368A1680340F3
:1004C00020690B4361690343E0690B4303431360F5
:1004D00010275168E06821F4405101435160002623
:1004E0000025A3697E498A421CBF206A03439068A5
:1004F00020F430600343936072457A487A4B21D1EF
:100500001B6803F00303032B41D8DFE803F0023D2F
:10051000293F0127E169B1F5004F4FF6F07840F02F
:10052000A78067B1012F00F07D80022F00F07D8051
:10053000042F00F07F80082F00F085808BE000F012
:10054000F3FD79E0DFF8A4C162450BD11B6813F01D
:100550000C0317D0042B17D0082B01D00C2B0FE065
:10056000022714E08A4212D11B6813F4406309D0B9
:10057000B3F5806F08D0B3F5006FF1D0B3F5406FDD
:1005800004D004E0002702E0042700E008278A42A4
:10059000C0D1390006D0022F08D0042F0FD0082F69
:1005A00010D08DE000F0C0FD00283AD0626802EB68
:1005B0004201884202D31303834206D280E000F056
:1005C00065FDF1E74FF40040F0E737B1022F0AD0A4
:1005D000042F0ED0082F16D01BE000F0A5FD00F070
:1005E0008DF879410AE0424911EB520045EB0501D3
:1005F00004E000F04BFD00F081F86941002300F0B9
:10060000FDFD064606E0530803F50003B3FBF2F6D2
:1006100000E00125A6F540703649884250D2226894
:10062000D6604EE000F088FD06E06068324901EBDC
:1006300050010CE000F02AFD61684A0802EB40021C
:10064000B2FBF1F605E06068410801F58031B1FBCD
:10065000F0F6B6B200E00125A6F1100040452FD219
:1006600008EA0601C6F3420001432068C16028E0A1
:1006700047B1012F09D0022F0CD0042F08D0082F2A
:100680000ED015E000F050FD04E000F055FD01E053
:1006900000F0FCFC616800EB5100B0FBF1F605E0F6
:1006A0006068410801F50041B1FBF0F6B6B200E028
:1006B0000125A6F11000404502D22168CE6000E07D
:1006C00001250020206660662846BDE8F081000014
:1006D0001B090008BD080008F369FFEF003801405E
:1006E000008000400024F4008810024000440040D4
:1006F000000024F400FD0F000048E8016268010ECC
:10070000560816EB0020704790F82410CA0706D54B
:1007100002685368816A23F400330B43536090F8F6
:1007200024108A0706D502685368C16A23F480330F
:100730000B43536090F824104A0706D502685368AB
:10074000016B23F480230B43536090F824100A07B5
:1007500006D502685368416B23F400430B43536092
:1007600090F82410CA0606D502689368816B23F4BA
:1007700080530B43936090F824108A0606D50268D4
:100780009368C16B23F400530B43936090F82410DB
:100790004A0610D502685368016C23F480130B439A
:1007A0005360036CB3F5801F05D15368416C23F48B
:1007B000C0030B43536090F824100A0606D5016865
:1007C0004A68806C22F4002202434A607047F8B500
:1007D000044604F17005002068606FF07E4700F069
:1007E00077F90646206801680A0708D5009733465E
:1007F00000224FF40011204600F016F860B920687E
:1008000001684A070AD50097334600224FF4800159
:10081000204600F009F808B10320F2BD20206870DE
:10082000A87000202870F2BD2DE9F041069C054615
:100830000E4690461F462868C1693140B1420CBF40
:1008400001200020404518D114F1010FF3D024B14C
:1008500000F03EF9C01B8442EDD22868016821F403
:10086000D071016000F00CF805F17000202141709A
:10087000817000210170032000E00020BDE8F081BC
:1008800028688168490849008160704701680A68E2
:1008900022F490720A6001688A68520852008A60E5
:1008A000202180F87210002202667047806A00F1F1
:1008B000520100220A810A8000F035B970B500F1BA
:1008C0005A0200F16001538804688D7C222D18D1F2
:1008D000A48C456D6E1C466523402B7013885B1EEF
:1008E00013809BB28BB90268136823F4907300F0F5
:1008F0000DF820228A7400230B60BDE8704000F0E0
:100900007FB8208B40F00800208370BD1360026820
:1009100093685B085B009360704738B500F1600234
:100920000168937C222B20D18B8C456D00F15A04F9
:1009300061880B402B80416D8B1C43652588691EA7
:10094000218089B2A9B901680B6823F490730B6008
:1009500001688B685B085B008B6020219174002329
:100960001360BDE8324000F04BB8088B40F008003F
:10097000088331BD80B54148414901604FF4E132FF
:1009800000230C2142608360C36003614161836185
:10099000C36103624362FFF7F9FB30B1BDE8044075
:1009A0005FF049013AA000F0BBBD01BD00683449C9
:1009B000884200D0704780B5324886B0026842F461
:1009C000003202600C21006800F400300090022226
:1009D00000980191029200210391032207210591C1
:1009E000049201A94FF0904000F0B8FD00220021D0
:1009F000262000F099FE262000F0B3FE07B000BDCF
:100A000078B544F20405204C605943F6FF31884222
:100A100085B01ED100F026FF0021019139220392FA
:100A20000721049100220092694601A800F098FF76
:100A30000025201D1549425D002301EBC501002062
:100A400000F0CAFE6D1CB5F5F06FF2D300F01AFF8E
:100A500011E00A4E0023012221463046FFF7D6FB63
:100A6000012221463046FFF728FC60592178221DDB
:100A70001154401C605106B070BD00002C40002095
:100A800000440040581002402400002000C001082B
:100A9000463A5C53797374656D5C446F63756D653C
:100AA0006E74735C437562654D585C4C3433325FD1
:100AB00055617274325F426F6F744C6F616465721E
:100AC0005C5372635C75736172742E630000000086
:100AD00001480068704700BFA440002038B500F10D
:100AE000240100244A78022A03D0042088610124CA
:100AF00017E00268136823F00E031360026815689C
:100B00006D086D001560012291F82030CD6903F069
:100B10001C039A406A6001224A700C70496901B155
:100B20008847204632BD7047704770472DE9FC4723
:100B3000040019D0DFF88C76DFF89456B868FE68A8
:100B400000F00C082078C10606F0030651D5B8F174
:100B5000000F04D0B8F10C0F08BF012E2BD138685C
:100B6000810703D5A069002800F042813968080791
:100B70004EBF396869680909206A01F0F0018142B5
:100B800006D200F0E5FA002808D100F0E4F907E009
:100B900000F0E1F9206A00F0DBFA002840F028813B
:100BA00000F074FABA6800F066FA00F08FFF0100F6
:100BB00000F00D81CDE1A06990B1396841F00101EB
:100BC0003960FFF785FF81463868810700F1FD80B5
:100BD000FFF77EFFA0EB09000328F5D30320B8E15F
:100BE0003868400840003860FFF772FF8146386877
:100BF000810740F1EC80FFF76BFFA0EB09000328B1
:100C0000F5D3EBE76068B0F5803F04D1386840F475
:100C10008030386011E0B0F5A02F386806D140F47C
:100C200080203860396841F4803105E020F480305C
:100C30003860396821F480213960606868B1FFF755
:100C400047FF81463868810300F1D480FFF740FFF9
:100C5000A0EB09006528F5D3C0E7FFF739FF81460F
:100C60003868810340F1C680FFF732FFA0EB09002E
:100C70006528F5D3B2E7FFF72BFF801B0328C0F0F0
:100C8000E080ABE7E06880B1396841F48071396099
:100C9000FFF71EFF06463868410500F1BD80FFF7EB
:100CA00017FF801B0328F6D398E7386820F480707C
:100CB0003860FFF70DFF06463868410540F1B38004
:100CC000FFF706FF801B0328F6D387E740084000A4
:100CD0006860FFF7FDFE06466868810740F1B58051
:100CE000FFF7F6FE801B0328F6D377E70528286870
:100CF00006D140F004002860296841F0010105E0B8
:100D0000400840002860296821F004012960A0689B
:100D100041F2893968B1FFF7DBFE82462868810716
:100D200000F1C780FFF7D4FEA0EB0A004845F5D3D9
:100D300054E7FFF7CDFE82462868810740F1B9806D
:100D4000FFF7C6FEA0EB0A004845F5D346E7FFF7DC
:100D5000BFFE801B0328C0F0BF803FE74008400073
:100D6000A860FFF7B5FE0646A868810740F1B88085
:100D7000FFF7AEFE801B0328F6D32FE7FFF7A8FE90
:100D8000401B0328C0F0BB8028E7FFF7A1FE001B33
:100D90000328C0F0D98021E73968080103D4F96835
:100DA00089088900F960F968DFF828040140F960D2
:100DB000FFF78EFE04463868810140F1C980FFF7D5
:100DC00087FE001B0328F6D308E700F0C4F820785C
:100DD000C1070FD5B8F1080F05D0B8F10C0F08BF47
:100DE000032E7FF40FAF3868810303D5606808B91C
:100DF0000120AEE02078810715D5B8F1040F05D0A9
:100E0000B8F10C0F08BF022E7FF43CAF38684105E3
:100E100002D5E0680028EBD07868216920F0F8500E
:100E200040EA01607860207801070ED560690028EB
:100E300068683FF44BAF40F001006860FFF748FE80
:100E40000646686881077FF516AF2078410735D5DB
:100E5000B86D0026C10009D4B86D40F08050B86567
:100E60000126B86D00F0805000900098DFF868937C
:100E7000D9F80000C10513D4D9F8000040F48070FF
:100E8000C9F80000FFF724FE8246D9F80000C1052A
:100E900006D4FFF71DFEA0EB0A000328F5D39DE65C
:100EA000A06801287FF422AF286840F00100286084
:100EB0002DE71EB1B86D20F08050B865207881060E
:100EC0000ED5606A0028A8683FF448AF40F00100E2
:100ED000A860FFF7FDFD0646A86881077FF537AFDC
:100EE000A06AA8B3B8F10C0F82D00228386820F0AD
:100EF000807038607FF450AFFFF7EAFD0546386830
:100F000081013FF53BAF206B616B401E090241EA56
:100F10000011E26BE06A52080143206C521E400847
:100F200041EA4251401E41EA4061A06B41EAC06182
:100F3000F960396841F080713960F86840F080707C
:100F4000F860FFF7C5FD0446386881017FF51DAFE5
:100F50000020BDE8F687386840F00800386039683E
:100F6000206A21F0F001014339607968E06921F4D9
:100F70007F4141EA0021796070472DE9F04104008A
:100F8000884676D0DFF85462306800F007004045AC
:100F900009D23168C90848EAC1013160306800F0FF
:100FA0000700404565D12078DFF81852C10748D5C1
:100FB0006068032802D129688A0108E0022802D16A
:100FC00029688A0303E00028296802D18A0702D42D
:100FD0004FE04A054DD5A968890840EA8100A8601C
:100FE000FFF776FD0746A868616800F00C00B0EBDB
:100FF000810F26D0FFF76CFDC01B41F2893188427A
:10100000F1D303201BE02078410705D5AA68E068EA
:1010100022F4E0620243AA602178080706D5A96895
:10102000206921F4605141EAC001A96000F02EF866
:10103000AA6800F020F8BDE8F04100F047BDBDE827
:10104000F0812078810705D5AA68A06822F0F00217
:101050000243AA60316801F007018845D3D23068A5
:10106000C00848EAC0003060316801F0070141451E
:10107000C9D00120E3E75A49C2F30312895C524AFE
:1010800001F01F01C84010600020704710B54D4AA4
:101090009068D4680023002110F00C0004F00304D1
:1010A00003D00C2812D1012C1AD113681C0704D4C8
:1010B000464B1C68C4F3032302E01368C3F3031315
:1010C000494C54F8233048B9194628E0042808BF91
:1010D000464924D0082822D1454920E00C281ED1B9
:1010E000D168D068C0F30210401C01F0030102294E
:1010F00002D0032902D005E03C4900E03C49B1FBA5
:10110000F0F101E0B3FBF0F1D068C0F306204143F9
:10111000D068C0F34160401C4000B1FBF0F10846CC
:1011200010BD29480068704727482E4A0068136898
:101130003049C3F3022206E023482A4A00681368B4
:101140002C49C3F3C222895C01F01F01C8407047DB
:101150007CB5294E054630680024C10002D500F058
:10116000CDFC0EE0306840F080503060316801F016
:1011700080510091009800F0C1FC316821F080514D
:101180003160B0F5007F04D1802D0CD9A12D09D399
:1011900004E0802D88BF032405D801D1022402E099
:1011A000702D00D101240D480168C90844EAC1012D
:1011B0000160006800F00700A04201D0012076BD68
:1011C000002076BD00100240200000209410024054
:1011D00090100240FFFFEEFE007000400020024031
:1011E000C420000808100240D42000080024F400A5
:1011F00000127A004422000858100240BBBBE1B143
:10120000B2F5803F80F07E80022A1ED98C46B1FB69
:10121000F2F102FB11C31B0443EA1043B3FBF2FCDF
:1012200002FB1C3380B240EA0343B3FBF2F002FB43
:10123000103240EA0C4000237047022A05D9844648
:10124000B0FBF2F002FB10C270474AB105D100F0CA
:10125000010249085FEA300070470022002370470E
:1012600000F090BC0B00020000210020704790426B
:1012700071EB030CF6D3B3F5803F2FD2F0B5B3FA80
:1012800083F7B1FA81F4A7F10F0E3D1B5340CEF165
:10129000200602FA0EF2F3415340B5F10F0746D88B
:1012A0000F3C2C444140C4F12006A040F141414094
:1012B000B1FBF3F603FB1611A2FB0645001BA94187
:1012C00002D2761E8018594180EA010221FA0EF3FB
:1012D00062FA0EF200215A403046F0BD30B4B1FB44
:1012E000F3FC03FB1C11A2FB0C45001BA94103D21C
:1012F000ACF1010C8018594130BC02460B466046E7
:1013000000217047B2F1807F65D3F0B5B2FA82F761
:10131000B1FA81F4C7F10F063D1B22FA06F307F17B
:10132000110EF24120355A40B5F10F07B8D94140AE
:10133000C4F12006A040F1414140B1FBF3FC03FBA6
:101340001C11A2FB0C45001BA94103D2BCF1010CEE
:10135000801859410F2F12D30F3FC90341EA504162
:10136000B1FBF3F603FB1611A2FB0645D4EBC0302C
:10137000A94102D2761E8018594146EACC3C07B3F7
:101380004140C7F12006B840F1414140B1FBF3F6BE
:1013900003FB1611A2FB0645001BA94102D2761ED3
:1013A0008018594180EA010221FA0EF3C7F12004A6
:1013B00062FA0EF20CFA07F05A402CFA04F13043AC
:1013C000F0BD80EA010221FA0EF3002162FA0EF26A
:1013D00060465A40F0BD8C46B1FBF2F102FB11C3EE
:1013E0001B0243EA1063B3FBF2FC02FB1C331B023B
:1013F0004CEA002043EA1063B3FBF2FC02FB1C330F
:101400001B024CEA002043EA1063B3FBF2FC02FB30
:101410001C331B024CEA002043EA1063B3FBF2FCCE
:1014200002FB1C324CEA00200023704780B500F01C
:10143000ABFB00F019F800F0B7FBFFF79BFA262092
:1014400000F08FF9012233493348FEF736FF4FF49D
:1014500080714FF0904000F03EF94FF400714FF072
:10146000904000F038F9F2E700B5ABB000F002FCB4
:101470002A48016821F01801016014220592012117
:10148000602207910B910D92002101220C91109284
:101490001192022128220F91129207210222139108
:1014A0001492159205A8FFF741FB00B1FEE70F204B
:1014B00003210090019100220292039204920421E0
:1014C0006846FFF75AFD00B1FEE70221002216919F
:1014D0001F9216A800F0D6FB00B1FEE74FF4007093
:1014E00000F012FB00B1FEE7FFF71BFE4FF47A712C
:1014F000B0FBF1F000F03FF9042000F050F900F0EB
:10150000DCFC002200214FF0FF3000F00DF92BB081
:1015100000BD0000240000202C400020901002405C
:10152000FEE730B4002513E050F8042BD30744BF86
:10153000A9F101039A18091F042942F8045BFAD2A1
:1015400013468C0744BF15809B1CC90748BF1D70FC
:1015500050F8041B0029E7D130BC70472DE9F8474B
:1015600002460B460026DFF878814FF00F0933E082
:101570005C4FBA4214BF072702278F40274345F824
:101580002E70C74358490C6807EA040C5C68E403F2
:1015900048BF40EA0C0CC1F800C04C6807EA040CD4
:1015A0005C68A40348BF40EA0C0CC1F804C08C6816
:1015B00007EA040C5C68E40248BF40EA0C0CC1F87E
:1015C00008C0CC6807EA040C5F68BC0248BF40EA68
:1015D0000C0CC1F80CC0761C186830FA06F173D0F8
:1015E0000127B7403840F6D05C68B100022C18BF24
:1015F000122C11D1F40802EB840C01F01C04DCF86D
:1016000020E0D3F810A009FA04F52EEA05050AFA3D
:1016100004F42C43CCF820404FEA460C0325146810
:1016200005FA0CF56FEA050E1D7905F003050EEAC3
:10163000040405FA0CF52C4314605C68012C18BFF7
:10164000022C03D0112C18BF122C10D19468DD6825
:101650000EEA040405FA0CF52C439460546824EA5D
:1016600007075C68C4F30014B44027435760D76889
:101670000EEA07049F6807FA0CF52C43D4605C68F7
:10168000E700A8D5D8F80040184D44F00104C8F888
:1016900000404FEA960ED8F8007007F00107009757
:1016A00001F00C01009F55F82E7009FA01F427EAA9
:1016B0000404B2F1904F08BF002704D00C4FBA4287
:1016C0007FF456AF012758E7BDE8F1870AB1816181
:1016D0007047816270474269514041617047000024
:1016E000601002400008004800040140080001406A
:1016F000000400480901020006D5304A00F00F003E
:10170000104400F8041C70472D4B195470472D4BA2
:1017100019684FF6FF020002114000F4E060084330
:10172000294908431860704738B5264B1C68C4F334
:101730000223C3F10704052C28BF04241D1D072D17
:1017400034BF0023DB1E012505FA04F4641E21408A
:10175000994005FA03F35B1E1A401143BDE834407B
:10176000C8E7012200F01F01184BFFE78A4040093B
:1017700043F82020704710B5401EB0F1807F01D3A0
:10178000012010BD124C60600F214FF0FF30FFF7B9
:10179000B1FF0021A16007202060002010BD0428B7
:1017A0000B4904D1086840F00400086070470A68DB
:1017B00022F004020A60704700F00CB818ED00E057
:1017C00000E400E00CED00E00000FA0500E100E0BC
:1017D00010E000E0704700002DE9F84F584F054633
:1017E0003878002601288A469046994608BF02208C
:1017F00036D0012038704CF2503000F04BF8834660
:1018000058BB504C78602168480506D5216821F402
:10181000806121600220387700E03E7750464246E2
:101820004B461DB900F071F801260AE0012D18BFE2
:10183000022D06D1114600F072F8022D08BF4FF4B8
:1018400080264CF2503000F025F883461EB16069C6
:1018500020EA0606666100F00AF900203870584652
:10186000BDE8F28F3949CA680020002A00D47047C9
:1018700010B5374A374C0A600C60C968002948BF68
:10188000012010BD3448016841F00041FFE70160CC
:101890000020704770B50546FFF71AF906462A4C36
:1018A0002068C10310D515F1010FF9D0FFF710F929
:1018B000801BA842F4D3032070BD2068C10744BF39
:1018C00001202060002070BD00F012F802F00042FC
:1018D0001043F2D01A494A68024310F0404F4A6060
:1018E00000F00BF81CBF20F040402060012070BDCC
:1018F0002068A26819490840704704D0A26800F027
:1019000040410A43A2608100704710B512490C683B
:1019100044F001040C6040F8042B036010BD0E4A33
:10192000136843F48023136072B6402251F8043BDD
:1019300040F8043B521EF9D162B670470000000027
:101940000000002000200240102002400820024039
:1019500023016745AB89EFCD14200240FAC3020092
:101960002DE9F047DFF854610446307801288946B4
:1019700008BF02205BD0012030704CF2503A504634
:10198000FFF788FF002880464ED1DFF834517060A1
:101990002968880529680DD521F400712960286817
:1019A000410505D5286820F48060286003210BE0FC
:1019B000012006E0480506D5296821F480612960E8
:1019C0000220307701E000213177206801280BD117
:1019D000606800F02EF85046FFF75CFF80466869AB
:1019E00020F0040068611DE04FF0FF30C9F80000EE
:1019F000A76800E07F1CA068E1680818874211D240
:101A00006168384600F021F85046FFF743FF8046F2
:101A10006869DFF8B0100840B8F1000F6861E9D0DC
:101A2000C9F8007000F023F8002030704046BDE88F
:101A3000F087C007244903D50A6842F004020A600F
:101A4000086840F48030086070471F490A68C00089
:101A500022F4FF6200F4FF6010430860086840F061
:101A6000020008600A6842F480320A60704710B5CC
:101A70001248134A017F012918BF03290BD11368AB
:101A800043F400631360146824F400641460136862
:101A900043F400731360022918BF03290BD11168A6
:101AA00041F480511160136823F48053136011686E
:101AB00041F4806111600022027710BD0000002017
:101AC0000020024005F8FFFF1420024038B50A4903
:101AD0000A6804464FF47A70B2FBF0F0FFF74BFE51
:101AE000002508B1012505E0002221464FF0FF3016
:101AF000FFF71AFE284632BD20000020DFF87800EC
:101B0000006800F4C060704710B5DFF86C10B0F5E5
:101B1000007F086800F4C06015D1B0F5007F1BD0CD
:101B20000868DFF85820DFF8584020F4C06040F41F
:101B3000007000F018F84A6953050FD5002818BF47
:101B4000401EF8D10AE0B0F5806F05D0086820F497
:101B5000C06040F480600860002010BD4869410505
:101B6000FAD5032010BD0860322013684343B3FB4D
:101B7000F4F0401C7047000000700040200000207E
:101B800040420F0070470000032010B5FFF7BFFD73
:101B90000020FFF79BFF0024002814BF012400F061
:101BA00025FA204610BD000080B5284886B001689F
:101BB00041F004010160026802F0040205920599F7
:101BC000026842F001020260036803F0010305931A
:101BD0000599026842F002020260036803F0020302
:101BE00005930599026842F08002026001220068B4
:101BF00000F0800005904FF4E06105984FF09040B0
:101C0000FFF764FD012100910022029100F024F809
:101C100049F6F20000F026F800F020F8FB2000F072
:101C200021F80B48FFF79AFC4FF4E0610091012284
:101C300000210291039100F00FF8082000F012F843
:101C40000448FFF78BFC07B000BD00004C100240B9
:101C500000040048001C0048019269464FF0904083
:101C6000FFF77CBC0321009001910022029269469B
:101C7000704700000248016841F4807101607047BC
:101C8000007000402DE9FC47054600242868DFF875
:101C900040630105A1461BD5E86B58B1B0F5000FB4
:101CA00003D0B0F5400F09D010E0326842F4803222
:101CB000326004E0002100F0FEF804463CB9F16F08
:101CC000E86B21F440010143F16701E00124A146E2
:101CD000286881032BD5F06CC1004FF000080AD4AE
:101CE000F06C40F08050F0644FF00108F06C00F0B0
:101CF000805000900098DFF8DC72386840F4807003
:101D00003860FEF7E5FE82463868C10500F1AB8019
:101D1000FEF7DEFEA0EB0A000328F5D30324A1465C
:101D2000B8F1000F03D0F06C20F08050F0642878F8
:101D3000C10705D5F26F286A920840EA8202F2676D
:101D40002978880705D5F16F686A21F00C010143F5
:101D5000F1672978880605D5F16FA86A21F44061FA
:101D60000143F1672968880505D5F16F686B21F497
:101D700040210143F1672968480505D5F16FA86B3B
:101D800021F440110143F1672978480605D5F16F28
:101D9000E86A21F440510143F1672968C80505D577
:101DA000F16F286B21F440310143F1672968880401
:101DB00020D5F16F286C21F040610143F167286C58
:101DC000B0F1006F0ED1306840F48010306011E047
:101DD000FEF77EFE001B41F28931884260D34FF04E
:101DE00003099DE7B0F1806F04D100F063F80100B2
:101DF00018BF81462868410316D5F26F686C22F03F
:101E000040620243F267686CB0F1006F04D1306841
:101E100040F48010306007E0B0F1806F04D100F032
:101E200049F8010018BF8146286841040FD5F26FB8
:101E3000A86C22F040520243F267A96CB1F1805FB6
:101E400005D1022100F037F8010018BF814628684B
:101E5000010405D5F26FE86C22F080420243F2677C
:101E60004846BDE8F687002C7FF459AFDFF868716B
:101E7000386810F440701CBF296D88420BD0386858
:101E8000396841F48031396020F440703A6822F4B6
:101E900080323A603860C00705D5FEF719FE044667
:101EA0003868810794D53A68286D22F4407202435D
:101EB0003A6035E70121281D06E0DFF820010168BE
:101EC00041F00401016070472DE9F0410746434E9F
:101ED00038680C46F168002511F0030F0DD0F16849
:101EE00001F00301814237D1B0B3F0687968C0F3E3
:101EF0000210401C884213D02EE0012804D02BD3BE
:101F0000032823D01ED327E03268910724D5F26836
:101F1000796822F073021043491E40EA0110F06014
:101F2000306820F080603060FEF7D2FD8046306877
:101F3000010134D5FEF7CCFDA0EB08000328F6D351
:101F400003253CE031684A05E1D405E031688A03A5
:101F5000DDD431684A03DAD4012530E0012C32693E
:101F600006D13B691E4800F02DF841EA435105E0D7
:101F70007B691C4800F026F841EA43613161306812
:101F800040F080603060FEF7A3FD04463068010138
:101F900011D4FEF79DFD001B0328F7D3D0E7B968E5
:101FA000002CDBD132691048FB68024042EA012173
:101FB00041EAC361E2E73169B8690143316128460A
:101FC000BDE8F08102405B0842EA01215B1E7047D8
:101FD0000C100240007000409010024000100240BF
:101FE000FF809FFFFF80FFF9FF80FF0780B521483A
:101FF000816841F001018160816801F00101009177
:102000000099026842F080520260006800F080503F
:10201000009000980320FFF77AFB002200216FF068
:102020000B00FFF781FB002200216FF00A00FFF791
:102030007BFB002200216FF00900FFF775FB0022F7
:1020400000216FF00400FFF76FFB002200216FF00A
:102050000300FFF769FB002200216FF00100FFF78A
:1020600063FBBDE80840002200214FF0FF30FFF77E
:102070005BBB00BF581002400E48016841F470017C
:10208000016000220C49086840F0010008608A6085
:102090004FF480520B68094803400B60CA6000206F
:1020A0000B68074A23F480230B6088614FF00061BE
:1020B0001160704788ED00E000100240FFFFF6EA73
:1020C00008ED00E000000000000000000102030431
:1020D00006070809A0860100400D0300801A0600CB
:1020E00000350C0040420F0080841E0000093D00B6
:1020F00000127A000024F40000366E010048E80166
:10210000006CDC0230B5016884684218416802EB5B
:102110005103C9070BD54C4409E012F9011B12F811
:10212000015B002904F8015B05D5491CF9D19A42ED
:10213000F3D10C3030BD491EF1D5F8E77047FEE70A
:10214000FEE7FEE7FEE770477047704780B500F096
:1021500009F8BDE80140FFF72FBB0148FEF7FDB8C5
:102160002C40002002480168491C0160704700BFF4
:10217000A440002010B5074979441831064C7C442E
:10218000163404E00A68081D114488470146A1423C
:10219000F8D110BD2C000000480000004EF6885118
:1021A000CEF20001086840F470000860BFF34F8F62
:1021B000BFF36F8F4FF00070E1EE100A7047000020
:1021C00063F3FFFF844000002400002000000000B3
:1021D00035FFFFFF64010000140000000000002034
:1021E00000F00DF8002801D0FFF7C4FFAFF3008026
:1021F0000020AFF30080FFF719F900F002F801208A
:10220000704700F001B800000746384600F002F8B9
:10221000FBE7000080B5AFF30080024A11001820F0
:10222000ABBEFBE72600020001488047014800479B
:102230007920000839220008AFF30080FFF7AEFFD5
:10224000FFF7CEFF0000000001020304FFF7FEBF0E
:10225000FFF7FEBFFFF7FEBFFFF7FEBFFFF7FEBFB2
:10226000FFF7FEBFFFF7FEBFFFF7FEBFFFF7FEBFA2
:10227000FFF7FEBFFFF7FEBFFFF7FEBFFFF7FEBF92
:10228000FFF7FEBFFFF7FEBFFFF7FEBFFFF7FEBF82
:10229000FFF7FEBFFFF7FEBFFFF7FEBFFFF7FEBF72
:1022A000FFF7FEBFFFF7FEBFFFF7FEBFFFF7FEBF62
:1022B000FFF7FEBFFFF7FEBFFFF7FEBFFFF7FEBF52
:1022C000FFF7FEBFFFF7FEBFFFF7FEBFFFF7FEBF42
:1022D000FFF7FEBFFFF7FEBFFFF7FEBFFFF7FEBF32
:1022E000FFF7FEBFFFF7FEBFFFF7FEBFFFF7FEBF22
:1022F000FFF7FEBFFFF7FEBFFFF7FEBFFFF7FEBF12
:10230000FFF7FEBFFFF7FEBFFFF7FEBFFFF7FEBF01
:10231000FFF7FEBFFFF7FEBFFFF7FEBFFFF7FEBFF1
:10232000FFF7FEBFFFF7FEBFFFF7FEBFFFF7FEBFE1
:10233000FFF7FEBFFFF7FEBFF0000001F00002094B
:022340003D005E
:040000050800223994
:00000001FF
